:020000040000FA
:080008008316860183124A20D1
:10001000342083200000000000006B2083200000BB
:10002000000000003F2000000000000083200000CE
:1000300000000000552000000000000083200000A8
:10004000000000004A2000000000000083200000A3
:10005000000000006020000000000000832000007D
:1000600000000000342009280614000000000000F1
:1000700000008610000000000000000008000615C7
:1000800000000000000000008611000000000000D9
:1000900000000800061600000000000000008612A4
:1000A0000000000000000000080006100000000032
:1000B000000000008614000000000000000008009E
:1000C000061100000000000000008615000000007E
:1000D0000000000008000612000000000000000000
:1000E000861600000000000000000800D730A000C5
:1000F000C230A1000730A200A00B7C28A10B7C28F5
:10010000A20B7C280800F730A0001A30A100A00B39
:100110008728A10B8728000000000800B830A00045
:100120000230A100A00B9228A10B92280000000031
:020130000800C5
:02400E00223F4F
:00000001FF
